{
  "_format": "hh-sol-artifact-1",
  "contractName": "ERC20PermitMock",
  "sourceName": "contracts/test/ERC20PermitMock.sol",
  "abi": [
    {
      "inputs": [
        {
          "internalType": "string",
          "name": "name",
          "type": "string"
        },
        {
          "internalType": "string",
          "name": "symbol",
          "type": "string"
        }
      ],
      "stateMutability": "payable",
      "type": "constructor"
    },
    {
      "anonymous": false,
      "inputs": [
        {
          "indexed": true,
          "internalType": "address",
          "name": "owner",
          "type": "address"
        },
        {
          "indexed": true,
          "internalType": "address",
          "name": "spender",
          "type": "address"
        },
        {
          "indexed": false,
          "internalType": "uint256",
          "name": "value",
          "type": "uint256"
        }
      ],
      "name": "Approval",
      "type": "event"
    },
    {
      "anonymous": false,
      "inputs": [
        {
          "indexed": true,
          "internalType": "address",
          "name": "from",
          "type": "address"
        },
        {
          "indexed": true,
          "internalType": "address",
          "name": "to",
          "type": "address"
        },
        {
          "indexed": false,
          "internalType": "uint256",
          "name": "value",
          "type": "uint256"
        }
      ],
      "name": "Transfer",
      "type": "event"
    },
    {
      "inputs": [],
      "name": "DOMAIN_SEPARATOR",
      "outputs": [
        {
          "internalType": "bytes32",
          "name": "",
          "type": "bytes32"
        }
      ],
      "stateMutability": "view",
      "type": "function"
    },
    {
      "inputs": [
        {
          "internalType": "address",
          "name": "owner",
          "type": "address"
        },
        {
          "internalType": "address",
          "name": "spender",
          "type": "address"
        }
      ],
      "name": "allowance",
      "outputs": [
        {
          "internalType": "uint256",
          "name": "",
          "type": "uint256"
        }
      ],
      "stateMutability": "view",
      "type": "function"
    },
    {
      "inputs": [
        {
          "internalType": "address",
          "name": "spender",
          "type": "address"
        },
        {
          "internalType": "uint256",
          "name": "amount",
          "type": "uint256"
        }
      ],
      "name": "approve",
      "outputs": [
        {
          "internalType": "bool",
          "name": "",
          "type": "bool"
        }
      ],
      "stateMutability": "nonpayable",
      "type": "function"
    },
    {
      "inputs": [
        {
          "internalType": "address",
          "name": "account",
          "type": "address"
        }
      ],
      "name": "balanceOf",
      "outputs": [
        {
          "internalType": "uint256",
          "name": "",
          "type": "uint256"
        }
      ],
      "stateMutability": "view",
      "type": "function"
    },
    {
      "inputs": [],
      "name": "decimals",
      "outputs": [
        {
          "internalType": "uint8",
          "name": "",
          "type": "uint8"
        }
      ],
      "stateMutability": "view",
      "type": "function"
    },
    {
      "inputs": [
        {
          "internalType": "address",
          "name": "spender",
          "type": "address"
        },
        {
          "internalType": "uint256",
          "name": "subtractedValue",
          "type": "uint256"
        }
      ],
      "name": "decreaseAllowance",
      "outputs": [
        {
          "internalType": "bool",
          "name": "",
          "type": "bool"
        }
      ],
      "stateMutability": "nonpayable",
      "type": "function"
    },
    {
      "inputs": [],
      "name": "getChainId",
      "outputs": [
        {
          "internalType": "uint256",
          "name": "",
          "type": "uint256"
        }
      ],
      "stateMutability": "view",
      "type": "function"
    },
    {
      "inputs": [
        {
          "internalType": "address",
          "name": "spender",
          "type": "address"
        },
        {
          "internalType": "uint256",
          "name": "addedValue",
          "type": "uint256"
        }
      ],
      "name": "increaseAllowance",
      "outputs": [
        {
          "internalType": "bool",
          "name": "",
          "type": "bool"
        }
      ],
      "stateMutability": "nonpayable",
      "type": "function"
    },
    {
      "inputs": [],
      "name": "name",
      "outputs": [
        {
          "internalType": "string",
          "name": "",
          "type": "string"
        }
      ],
      "stateMutability": "view",
      "type": "function"
    },
    {
      "inputs": [
        {
          "internalType": "address",
          "name": "owner",
          "type": "address"
        }
      ],
      "name": "nonces",
      "outputs": [
        {
          "internalType": "uint256",
          "name": "",
          "type": "uint256"
        }
      ],
      "stateMutability": "view",
      "type": "function"
    },
    {
      "inputs": [
        {
          "internalType": "address",
          "name": "owner",
          "type": "address"
        },
        {
          "internalType": "address",
          "name": "spender",
          "type": "address"
        },
        {
          "internalType": "uint256",
          "name": "value",
          "type": "uint256"
        },
        {
          "internalType": "uint256",
          "name": "deadline",
          "type": "uint256"
        },
        {
          "internalType": "uint8",
          "name": "v",
          "type": "uint8"
        },
        {
          "internalType": "bytes32",
          "name": "r",
          "type": "bytes32"
        },
        {
          "internalType": "bytes32",
          "name": "s",
          "type": "bytes32"
        }
      ],
      "name": "permit",
      "outputs": [],
      "stateMutability": "nonpayable",
      "type": "function"
    },
    {
      "inputs": [],
      "name": "symbol",
      "outputs": [
        {
          "internalType": "string",
          "name": "",
          "type": "string"
        }
      ],
      "stateMutability": "view",
      "type": "function"
    },
    {
      "inputs": [],
      "name": "totalSupply",
      "outputs": [
        {
          "internalType": "uint256",
          "name": "",
          "type": "uint256"
        }
      ],
      "stateMutability": "view",
      "type": "function"
    },
    {
      "inputs": [
        {
          "internalType": "address",
          "name": "recipient",
          "type": "address"
        },
        {
          "internalType": "uint256",
          "name": "amount",
          "type": "uint256"
        }
      ],
      "name": "transfer",
      "outputs": [
        {
          "internalType": "bool",
          "name": "",
          "type": "bool"
        }
      ],
      "stateMutability": "nonpayable",
      "type": "function"
    },
    {
      "inputs": [
        {
          "internalType": "address",
          "name": "sender",
          "type": "address"
        },
        {
          "internalType": "address",
          "name": "recipient",
          "type": "address"
        },
        {
          "internalType": "uint256",
          "name": "amount",
          "type": "uint256"
        }
      ],
      "name": "transferFrom",
      "outputs": [
        {
          "internalType": "bool",
          "name": "",
          "type": "bool"
        }
      ],
      "stateMutability": "nonpayable",
      "type": "function"
    }
  ],
  "bytecode": "0x6101406040527f6e71edae12b1b97f4d1f60370fef10105fa2faae0126114a169c64845d6126c96101209081525060405162001366380380620013668339810160408190526200004f9162000388565b8180604051806040016040528060018152602001603160f81b81525084848160039080519060200190620000859291906200022f565b5080516200009b9060049060208401906200022f565b5050825160209384012082519284019290922060c083815260e08290524660a0818152604080517f8b73c3c69bb8fe3d512ecc4cf759cc79239f7b179b0ffacaa9a75d522b39400f818a0181905281830198909852606081019590955260808086019390935230858301528051808603909201825293909201909252805194019390932090925261010052506200013f90503369d3c21bcecceda100000062000147565b505062000467565b6001600160a01b038216620001a25760405162461bcd60e51b815260206004820152601f60248201527f45524332303a206d696e7420746f20746865207a65726f206164647265737300604482015260640160405180910390fd5b8060026000828254620001b69190620003ef565b90915550506001600160a01b03821660009081526020819052604081208054839290620001e5908490620003ef565b90915550506040518181526001600160a01b038316906000907fddf252ad1be2c89b69c2b068fc378daa952ba7f163c4a11628f55a4df523b3ef9060200160405180910390a35050565b8280546200023d9062000414565b90600052602060002090601f016020900481019282620002615760008555620002ac565b82601f106200027c57805160ff1916838001178555620002ac565b82800160010185558215620002ac579182015b82811115620002ac5782518255916020019190600101906200028f565b50620002ba929150620002be565b5090565b5b80821115620002ba5760008155600101620002bf565b600082601f830112620002e6578081fd5b81516001600160401b038082111562000303576200030362000451565b604051601f8301601f19908116603f011681019082821181831017156200032e576200032e62000451565b816040528381526020925086838588010111156200034a578485fd5b8491505b838210156200036d57858201830151818301840152908201906200034e565b838211156200037e57848385830101525b9695505050505050565b600080604083850312156200039b578182fd5b82516001600160401b0380821115620003b2578384fd5b620003c086838701620002d5565b93506020850151915080821115620003d6578283fd5b50620003e585828601620002d5565b9150509250929050565b600082198211156200040f57634e487b7160e01b81526011600452602481fd5b500190565b600181811c908216806200042957607f821691505b602082108114156200044b57634e487b7160e01b600052602260045260246000fd5b50919050565b634e487b7160e01b600052604160045260246000fd5b60805160a05160c05160e0516101005161012051610eaf620004b76000396000610544015260006109d501526000610a24015260006109ff01526000610983015260006109ac0152610eaf6000f3fe608060405234801561001057600080fd5b50600436106100f55760003560e01c80633950935111610097578063a457c2d711610066578063a457c2d7146101d4578063a9059cbb146101e7578063d505accf146101fa578063dd62ed3e1461020f57600080fd5b8063395093511461017d57806370a08231146101905780637ecebe00146101b957806395d89b41146101cc57600080fd5b806323b872dd116100d357806323b872dd1461014d578063313ce567146101605780633408e4701461016f5780633644e5151461017557600080fd5b806306fdde03146100fa578063095ea7b31461011857806318160ddd1461013b575b600080fd5b610102610248565b60405161010f9190610dd5565b60405180910390f35b61012b610126366004610dac565b6102da565b604051901515815260200161010f565b6002545b60405190815260200161010f565b61012b61015b366004610d00565b6102f0565b6040516012815260200161010f565b4661013f565b61013f6103bb565b61012b61018b366004610dac565b6103ca565b61013f61019e366004610cad565b6001600160a01b031660009081526020819052604090205490565b61013f6101c7366004610cad565b610401565b610102610421565b61012b6101e2366004610dac565b610430565b61012b6101f5366004610dac565b6104e3565b61020d610208366004610d3b565b6104f0565b005b61013f61021d366004610cce565b6001600160a01b03918216600090815260016020908152604080832093909416825291909152205490565b60606003805461025790610e57565b80601f016020809104026020016040519081016040528092919081815260200182805461028390610e57565b80156102d05780601f106102a5576101008083540402835291602001916102d0565b820191906000526020600020905b8154815290600101906020018083116102b357829003601f168201915b5050505050905090565b60006102e7338484610654565b50600192915050565b60006102fd848484610778565b6001600160a01b03841660009081526001602090815260408083203384529091529020548281101561039c5760405162461bcd60e51b815260206004820152602860248201527f45524332303a207472616e7366657220616d6f756e742065786365656473206160448201527f6c6c6f77616e636500000000000000000000000000000000000000000000000060648201526084015b60405180910390fd5b6103b085336103ab8685610e40565b610654565b506001949350505050565b60006103c561097f565b905090565b3360008181526001602090815260408083206001600160a01b038716845290915281205490916102e79185906103ab908690610e28565b6001600160a01b0381166000908152600560205260408120545b92915050565b60606004805461025790610e57565b3360009081526001602090815260408083206001600160a01b0386168452909152812054828110156104ca5760405162461bcd60e51b815260206004820152602560248201527f45524332303a2064656372656173656420616c6c6f77616e63652062656c6f7760448201527f207a65726f0000000000000000000000000000000000000000000000000000006064820152608401610393565b6104d933856103ab8685610e40565b5060019392505050565b60006102e7338484610778565b834211156105405760405162461bcd60e51b815260206004820152601d60248201527f45524332305065726d69743a206578706972656420646561646c696e650000006044820152606401610393565b60007f000000000000000000000000000000000000000000000000000000000000000088888861056f8c610a72565b6040805160208101969096526001600160a01b0394851690860152929091166060840152608083015260a082015260c0810186905260e00160405160208183030381529060405280519060200120905060006105ca82610a9a565b905060006105da82878787610ae8565b9050896001600160a01b0316816001600160a01b03161461063d5760405162461bcd60e51b815260206004820152601e60248201527f45524332305065726d69743a20696e76616c6964207369676e617475726500006044820152606401610393565b6106488a8a8a610654565b50505050505050505050565b6001600160a01b0383166106b65760405162461bcd60e51b8152602060048201526024808201527f45524332303a20617070726f76652066726f6d20746865207a65726f206164646044820152637265737360e01b6064820152608401610393565b6001600160a01b0382166107175760405162461bcd60e51b815260206004820152602260248201527f45524332303a20617070726f766520746f20746865207a65726f206164647265604482015261737360f01b6064820152608401610393565b6001600160a01b0383811660008181526001602090815260408083209487168084529482529182902085905590518481527f8c5be1e5ebec7d5bd14f71427d1e84f3dd0314c0f7b2291e5b200ac8c7c3b925910160405180910390a3505050565b6001600160a01b0383166107f45760405162461bcd60e51b815260206004820152602560248201527f45524332303a207472616e736665722066726f6d20746865207a65726f20616460448201527f64726573730000000000000000000000000000000000000000000000000000006064820152608401610393565b6001600160a01b0382166108565760405162461bcd60e51b815260206004820152602360248201527f45524332303a207472616e7366657220746f20746865207a65726f206164647260448201526265737360e81b6064820152608401610393565b6001600160a01b038316600090815260208190526040902054818110156108e55760405162461bcd60e51b815260206004820152602660248201527f45524332303a207472616e7366657220616d6f756e742065786365656473206260448201527f616c616e636500000000000000000000000000000000000000000000000000006064820152608401610393565b6108ef8282610e40565b6001600160a01b038086166000908152602081905260408082209390935590851681529081208054849290610925908490610e28565b92505081905550826001600160a01b0316846001600160a01b03167fddf252ad1be2c89b69c2b068fc378daa952ba7f163c4a11628f55a4df523b3ef8460405161097191815260200190565b60405180910390a350505050565b60007f00000000000000000000000000000000000000000000000000000000000000004614156109ce57507f000000000000000000000000000000000000000000000000000000000000000090565b50604080517f00000000000000000000000000000000000000000000000000000000000000006020808301919091527f0000000000000000000000000000000000000000000000000000000000000000828401527f000000000000000000000000000000000000000000000000000000000000000060608301524660808301523060a0808401919091528351808403909101815260c0909201909252805191012090565b6001600160a01b03811660009081526005602052604090208054600181018255905b50919050565b600061041b610aa761097f565b8360405161190160f01b6020820152602281018390526042810182905260009060620160405160208183030381529060405280519060200120905092915050565b60007f7fffffffffffffffffffffffffffffff5d576e7357a4501ddfe92f46681b20a0821115610b655760405162461bcd60e51b815260206004820152602260248201527f45434453413a20696e76616c6964207369676e6174757265202773272076616c604482015261756560f01b6064820152608401610393565b8360ff16601b1480610b7a57508360ff16601c145b610bd15760405162461bcd60e51b815260206004820152602260248201527f45434453413a20696e76616c6964207369676e6174757265202776272076616c604482015261756560f01b6064820152608401610393565b6040805160008082526020820180845288905260ff871692820192909252606081018590526080810184905260019060a0016020604051602081039080840390855afa158015610c25573d6000803e3d6000fd5b5050604051601f1901519150506001600160a01b038116610c885760405162461bcd60e51b815260206004820152601860248201527f45434453413a20696e76616c6964207369676e617475726500000000000000006044820152606401610393565b95945050505050565b80356001600160a01b0381168114610ca857600080fd5b919050565b600060208284031215610cbe578081fd5b610cc782610c91565b9392505050565b60008060408385031215610ce0578081fd5b610ce983610c91565b9150610cf760208401610c91565b90509250929050565b600080600060608486031215610d14578081fd5b610d1d84610c91565b9250610d2b60208501610c91565b9150604084013590509250925092565b600080600080600080600060e0888a031215610d55578283fd5b610d5e88610c91565b9650610d6c60208901610c91565b95506040880135945060608801359350608088013560ff81168114610d8f578384fd5b9699959850939692959460a0840135945060c09093013592915050565b60008060408385031215610dbe578182fd5b610dc783610c91565b946020939093013593505050565b6000602080835283518082850152825b81811015610e0157858101830151858201604001528201610de5565b81811115610e125783604083870101525b50601f01601f1916929092016040019392505050565b60008219821115610e3b57610e3b610e8c565b500190565b600082821015610e5257610e52610e8c565b500390565b600181811c90821680610e6b57607f821691505b60208210811415610a9457634e487b7160e01b600052602260045260246000fd5b634e487b7160e01b600052601160045260246000fdfea164736f6c6343000804000a",
  "linkReferences": {},
  "deployedLinkReferences": {}
}